:100000000C94A5000C94CD000C94CD000C94CD0064
:100010000C94CD000C94CD000C94CD000C94CD002C
:100020000C94CD000C94CD000C94CD000C94CD001C
:100030000C94CD000C94CD000C94CD000C94CD000C
:100040000C9437110C94CD000C94A7110C948111D1
:100050000C94CD000C94CD000C94CD000C94CD00EC
:100060000C94CD000C94CD00494420726563656208
:1000700069646F2064612063656E7472616C3A20FC
:1000800000416E74656E61206F66666C696E652EE8
:100090000046616C686120616F20636F6E656374F8
:1000A000617220C3A020726564650A456E7669613D
:1000B0006E646F206E6F766120736F6C6963697414
:1000C00061C3A7C3A36F20646520656E7472616409
:1000D000612E2E2E00436F6E656374616E646F2017
:1000E000C3A020726564652E2E2E0000000008005B
:1000F00002010000030407000000000000000000EF
:10010000000000250028002B00000000002400272C
:10011000002A00040404040404040402020202028B
:1001200002030303030303010204081020408001BB
:100130000204081020010204081020000102030438
:10014000050A0B0C0D0E0F00D91111241FBECFEFA5
:10015000D8E0DEBFCDBF24E0ACE4B2E001C01D9228
:10016000AD39B207E1F712E0A0E0B1E0E6E3FBE26F
:1001700002C005900D92AC34B107D9F710E0C5EA82
:10018000D0E004C02197FE010E945314C43AD10765
:10019000C9F70E9497120C9499150C940000CF9304
:1001A000DF93CDB7DEB728970FB6F894DEBF0FBE4A
:1001B000CDBFAC019CEC99839A839B839C839D83E8
:1001C0001E821F8218869A01E1E021153105C9F0CF
:1001D000611103C04115510569F4D901A770BB270E
:1001E000A45FBE4F8C91A1E0B0E0AC0FBD1FAE0F7D
:1001F000B11D8C9383E0369527958A95E1F7EF5FE3
:10020000E4CF611102C0452BB9F4E62FF0E0E45FC2
:10021000FE4F8081898329813A814B815C816D8188
:100220007E818F81988528960FB6F894DEBF0FBE29
:10023000CDBFDF91CF910895F0E0E55FFE4F808163
:100240008A83E9CF80349105C9F088309105B1F0F7
:1002500020E0009761F0382F37703150353060F46E
:1002600033E0969587953A95E1F72F5FF2CF81E0DD
:10027000253008F080E0089580E0FACF81E008950D
:1002800090E0FC01E95DFE4F24918D5E9E4FFC01E4
:100290008491882399F090E0880F991FFC01E75F13
:1002A000FE4FA591B491FC01E150FF4F85919491CF
:1002B0008FB7F894EC91E22BEC938FBF089590E008
:1002C000FC01E551FF4F2491FC01E95DFE4F3491A3
:1002D000FC01ED5EFE4FE491EE23C9F0222339F0DC
:1002E000233001F1A8F4213019F1223029F1F0E096
:1002F000EE0FFF1FE150FF4FA591B4918FB7F89417
:10030000EC91611126C030953E233C938FBF089538
:100310002730A9F02830C9F0243049F780918000B7
:100320008F7D03C0809180008F7780938000DFCF26
:1003300084B58F7784BDDBCF84B58F7DFBCF809173
:10034000B0008F778093B000D2CF8091B0008F7DC6
:10035000F9CF3E2BDACF8230910538F0880F991F04
:10036000880F991F05970197F1F708953FB7F89403
:100370008091530290915402A0915502B09156027F
:1003800026B5A89B05C02F3F19F00196A11DB11DF0
:100390003FBFBA2FA92F982F8827BC01CD01620F2C
:1003A000711D811D911D42E0660F771F881F991FE7
:1003B0004A95D1F708958F929F92AF92BF92CF92B4
:1003C000DF92EF92FF926B017C010E94B6014B011C
:1003D0005C01C114D104E104F104B9F00E94B6013A
:1003E000681979098A099B09683E7340810591055E
:1003F00080F321E0C21AD108E108F10888EE880EE6
:1004000083E0981EA11CB11CE4CFFF90EF90DF9019
:10041000CF90BF90AF909F908F9008952FB7F89492
:1004200060914F027091500280915102909152025E
:100430002FBF0895AF92BF92CF92DF92EF92FF92BB
:100440000F931F93CF93DF936C017B018B01040FFC
:10045000151FEB015E01AE18BF08C017D10759F098
:100460006991D601ED91FC910190F081E02DC601DA
:100470000995892B79F7C501DF91CF911F910F91D4
:10048000FF90EF90DF90CF90BF90AF900895FC0168
:10049000538D448D252F30E0842F90E0821B930BE9
:1004A000541710F0CF96089501970895FC01918D8F
:1004B000828D981761F0A28DAE0FBF2FB11D5D9692
:1004C0008C91928D9F5F9F73928F90E008958FEF34
:1004D0009FEF0895FC01918D828D981731F0828DE8
:1004E000E80FF11D858D90E008958FEF9FEF08953F
:1004F000FC01918D228D892F90E0805C9F4F821BA3
:1005000091098F739927089587E592E00E947802F8
:1005100021E0892B09F420E0822F089580E090E00B
:10052000892B29F00E94840281110C940000089507
:10053000FC01A48DA80FB92FB11DA35ABF4F2C9158
:10054000848D90E001968F739927848FA689B7894F
:100550002C93A089B1898C91837080648C93938D46
:10056000848D981306C00288F389E02D80818F7DE9
:1005700080830895EF92FF920F931F93CF93DF93A1
:10058000EC0181E0888F9B8D8C8D98131AC0E889CF
:10059000F989808185FF15C09FB7F894EE89FF899E
:1005A0006083E889F98980818370806480839FBF3C
:1005B00081E090E0DF91CF911F910F91FF90EF903C
:1005C0000895F62E0B8D10E00F5F1F4F0F7311274C
:1005D000E02E8C8D8E110CC00FB607FCFACFE88987
:1005E000F989808185FFF5CFCE010E949802F1CF75
:1005F000EB8DEC0FFD2FF11DE35AFF4FF0829FB7FB
:10060000F8940B8FEA89FB8980818062CFCF0F93AA
:100610001F93CF93DF938C01D0E0C0E0F801EC0F83
:10062000FD1F6491662341F087E592E00E94BA02C3
:10063000892B11F02196F2CFCE01DF91CF911F913E
:100640000F910895CF93DF93EC01888D8823B9F043
:10065000AA89BB89E889F9898C9185FD03C08081CD
:1006600086FD0DC00FB607FCF7CF8C9185FFF2CF4A
:10067000808185FFEDCFCE010E949802E9CFDF9106
:10068000CF910895CF93DF93FB0140815181228167
:10069000223048F081E0838380E05183408382836D
:1006A000DF91CF910895DC01A459BE4F2D913C916B
:1006B000B90164237523EC01ACA5BDA5A617B70746
:1006C00051F0DC01A759BE4F4D915C9185599E4F69
:1006D000DC018C91E2CFC9018095909563E0880F91
:1006E000991F6A95E1F784239523892B41F083E0D4
:1006F000220F331F8A95E1F727604223532385E0B9
:10070000CCCFFC018281938189130C945F01089501
:10071000CF93DF93EC018B810E945F018A8D9B8DCB
:10072000DF91CF910C94AB0161E00C9488038EBDF6
:1007300000000DB407FEFDCF8EB50895FC010190B9
:100740000020E9F73197AF01481B590BBC0187E541
:1007500092E00C941A028F929F92AF92BF920F93E5
:100760001F93CF93DF93CDB7DEB7A1970FB6F89461
:10077000DEBF0FBECDBF19A2423008F44AE08E01A1
:100780000F5D1F4F842E912CB12CA12CA50194013B
:100790000E943114E62FB901CA01EA30F4F4E05D99
:1007A000D801EE938D01232B242B252B79F790E094
:1007B00080E0109719F0CD010E949E03A1960FB61C
:1007C000F894DEBF0FBECDBFDF91CF911F910F9187
:1007D000BF90AF909F908F900895E95CE1CF0C940B
:1007E0009E03CF93DF930E949E03EC0185E291E08C
:1007F0000E949E038C0F9D1FDF91CF910895CF9390
:10080000DF930E940703EC0185E291E00E949E03C2
:100810008C0F9D1FDF91CF910895CF92DF92EF92C1
:10082000FF92CF93DF936C01990FEE08FF08F7FE5C
:100830001FC06DE287E592E00E94BA02EC016627D4
:100840007727CB016C197D098E099F094AE00E9428
:10085000AB03C80FD91F85E291E00E949E038C0F65
:100860009D1FDF91CF91FF90EF90DF90CF90089583
:100870004AE0C701B6010E94AB03EC01ECCF8F92B6
:100880009F92AF92BF92CF92DF92EF92FF920F931F
:100890001F93CF93DF93EC015B01E8A8F12C870154
:1008A00008501109DB0116969C918CE6890F833064
:1008B00008F0B2C0FE01EB52FF4F6F019E012C52B7
:1008C0003F4F7901943951F5DE01A353BF4FEE5CE0
:1008D000F10988E001900D928A95E1F7DE01A952B5
:1008E000BF4FBE01615F7F4FA8018D919C910E9417
:1008F0007E15D6010D931C93F70180818150808372
:1009000081E0DF91CF911F910F91FF90EF90DF90E9
:10091000CF90BF90AF909F908F90089520813181AC
:10092000A801420F531F4139510520F0F7011082F1
:1009300080E0E7CFD7018C918823D1F3963921F05D
:10094000FB0197818913F4CFFE01EF52FF4F4081E5
:100950005181D50114968D919C914817590741F703
:100960004E01B7ED8B0E911CF40180819181A8019D
:10097000BE01615F7F4F820F931F0E947E15D601DB
:100980008D919C911197080F191F0D931C93F501E0
:100990008681863929F0D7018C9181508C93B0CF14
:1009A000F7011082D50117968C91FE01ED52FF4F91
:1009B0008083833809F447C07E01BBECEB0EF11C49
:1009C000F701A081B181CE018A1B9B0B8F539F4FF2
:1009D0008017910708F4ACCF32968AE001900D920F
:1009E0008A95E1F7D7018D919C91F4016081718125
:1009F000D6014D915C910A960E947E15F6012081E8
:100A00003181265F3F4FD7018D919C911197820FC5
:100A1000931F8D939C9374CF9338B9F4DE01A35345
:100A2000BF4FFE01379688E001900D928A95E1F75D
:100A3000FE01E952FF4FCE010F9691838083CB5286
:100A4000DF4F1983088382E05CCF6E01BBECCB0ED5
:100A5000D11CF601A081B181CE01C1969D01281B58
:100A6000390BC901800F911F8B39910508F060CFB8
:100A7000E45CF10988E001900D928A95E1F7D601D6
:100A8000ED91FC911197118700878D919C91BE018A
:100A9000615F7F4FA8010A960E947E15B2E0EB0EBF
:100AA000F11CF60180819181E80EF91EF182E0824D
:100AB00027CF0F931F93CF93DF93DC018B019A0114
:100AC00098E0EEE3F3E001900D929A95E1F7C09182
:100AD0004603D0914703AE012C173D0708F4A90146
:100AE00068E473E0C8010E947E1526EF3FEF2C1BDF
:100AF0003D0B8091D8039091D903820F931F90935F
:100B0000D9038093D8034AE950E04C1B5D0BBE012A
:100B1000685B7C4F8EE393E00E948715CE01DF91E6
:100B2000CF911F910F9108950F931F93FC010481A2
:100B300015812681378140E052E16AE770E090E05C
:100B4000041715072607370740F4769567955795DC
:100B500047959F5F9630A1F797E0292F206A269549
:100B6000909591702CBD9DBD60E0CF011F910F91BC
:100B70000C9488030F931F93CF93DF93EC01062F00
:100B8000142F0E949405802F80620E94970388870B
:100B9000812F0E949703CE01DF91CF911F910F917A
:100BA0000C949403FC01478541FD09C042604787CE
:100BB00060E00E94BA058BE19EE40197F1F7089589
:100BC0001F93CF93DF93EC01162F0E949405812F82
:100BD00080620E9497038887CE01DF91CF911F9199
:100BE0000C949403CF93DF93EC010E94940580E56D
:100BF0000E949703888783E70E949703CE01DF91C5
:100C0000CF910C949403DF92EF92FF920F931F9376
:100C1000CF93DF938C01C62FD42EE52EF22E0E94A7
:100C200094058C2F80620E949703F8018087CD2D58
:100C3000DE2DFA94FFEFFF1621F089910E949703B1
:100C4000F8CFC801DF91CF911F910F91FF90EF90E6
:100C5000DF900C9494031F93CF93DF93EC01162F36
:100C60000E949405812F0E94970388878FEF0E942E
:100C70009703182FCE010E949403812FDF91CF910B
:100C80001F9108951F93CF93DF93EC01162F61E01E
:100C90000E942B06112351F0182F1160412F61E0A3
:100CA000CE01DF91CF911F910C94BA05182F1E7FB2
:100CB0008A89882399F36DE1CE010E942B06482F83
:100CC0004D7F6DE1CE010E94BA051A8AE7CF4F929F
:100CD0005F926F927F928F929F92AF92BF92CF92CC
:100CE000DF92EF92FF92CF93DF93EC014A015B0119
:100CF0000E940E026B017C01240135018FE5480E34
:100D0000511C611C711C67E1CE010E942B0684FD01
:100D100042C0888584FF30C040E167E0CE010E9478
:100D2000BA0560E0CE010E94810361E0CE010E941D
:100D300081030E940E026C197D098E099F096815B6
:100D400079058A059B05C0F060E0CE010E94810311
:100D500061EECE010E94E00580E0DF91CF91FF902F
:100D6000EF90DF90CF90BF90AF909F908F907F904B
:100D70006F905F904F9008950E940E026C197D094C
:100D80008E099F09461657066806790608F0BBCFFC
:100D900081E08D8BE1CF60E0CE010E94810381E094
:100DA000DCCF0F931F93CF93DF93EC018B0166E0B1
:100DB0000E942B06877D02301105E1F045E550E0E9
:100DC00060E070E04E8B5F8B688F798F10E0182B9E
:100DD000412F66E0CE010E94BA0566E0CE010E9476
:100DE0002B0691E0811390E0892FDF91CF911F9125
:100DF0000F9108954BE950E060E070E04E8B5F8BFF
:100E0000688F798F10E2E3CFCF93DF93EC0160E03E
:100E10000E9481038E899F890E94AB018A89882361
:100E200021F061EECE010E94E0054F854E7F4F8795
:100E300060E0CE010E94BA0562E0CE010E942B065E
:100E4000EBE3F1E0E49141E050E001C0440FEA95AA
:100E5000EAF7482B62E0CE01DF91CF910C94BA05FE
:100E60008F929F92AF92BF92CF92DF92EF92FF92BA
:100E70000F931F93CF93DF93CDB7DEB728970FB6AD
:100E8000F894DEBF0FBECDBF8C016B01B42EF22EE5
:100E9000FC0182A582FD04C086A597A50E940407D7
:100EA000F80182A582FF03C08585843941F561E0A0
:100EB0006F25F80186A597A50E944206F801E6A4D1
:100EC000F7A46B2DC6010E94CF0029833A834B8380
:100ED0005C836D837E838F839887F7012389AE01BE
:100EE0004F5F5F4F6AE0C7010E940306F701238945
:100EF000AE014F5F5F4F60E1C7010E940306F8013A
:100F0000C6A4D7A4F0A80E940E024B015C016FEFAB
:100F1000C6010E94E005F601808580FF12C084FDB5
:100F20000EC00E940E02681979098A099B09603671
:100F300071058105910558F381E0F601858BF12C4F
:100F400039C0848981111BC0E184EF1408F4FE2CA0
:100F5000EF18C6010E94940580EA0E949703F601EB
:100F600080875801F7E0AF0EB11CFA948FEFF816A6
:100F700081F0F50181915F010E949703F6CFEE2485
:100F8000E394F110E12CF0E2FF1518F780E2F82E5F
:100F9000E0CFEA94FFEFEF1621F080E00E94970384
:100FA000F8CFC6010E94940361E0C6010E9481034C
:100FB000FF24F394F80182A582FD0FC04181528184
:100FC0006381748186A597A50E946706F82E60E06C
:100FD000F80186A597A50E9442068F2D28960FB688
:100FE000F894DEBF0FBECDBFDF91CF911F910F915F
:100FF000FF90EF90DF90CF90BF90AF909F908F9039
:101000000895CF93DF93EC010E94D2054F85416094
:101010004F8760E0CE010E94BA0540E767E0CE014D
:101020000E94BA0561E0CE010E948103898988236C
:1010300051F0AE01465F5F4F2B896AE0CE01DF9130
:10104000CF910C94030662E0CE010E942B06EBE3E5
:10105000F1E0E49121E030E001C0220FEA95EAF7E7
:101060002095422F482362E0CE010E94BA05198ADA
:10107000DF91CF9108955F926F927F928F929F92AE
:10108000AF92BF92CF92DF92EF92FF920F931F9396
:10109000CF93DF93CDB7DEB728970FB6F894DEBFB6
:1010A0000FBECDBF8C015B01CB010E9422018823C2
:1010B00009F4D7C0F801B5A6A4A686A597A5FC019A
:1010C00022812F3F09F4CDC023812F3F09F4C9C0ED
:1010D0004FE361E00E94BA0560E0F80186A597A59C
:1010E0000E944206F801E6A4F7A46DE1C7010E9440
:1010F0002B06482F44606DE1C7010E94BA056CE1E0
:10110000C7010E942B06482F4F636CE1C7010E9464
:10111000BA0581E0F701848BF80184A595A566E006
:1011200070E00E941D14482F440F4B5FF0E14F9F69
:10113000A0011124456064E0F80186A597A50E94EE
:10114000BA0589E190E0A0E0B0E0F80181839283E4
:10115000A383B4838BE490E09683858324A535A58F
:1011600040E08FEF9FEFB90168237923672B39F0B7
:1011700073E0880F991F7A95E1F74F5FF4CFF8017C
:1011800043A780959095E459FE4F9183808363E057
:10119000969587956A95E1F73397A90148235923D6
:1011A00051834083009759F043E0369527954A953F
:1011B000E1F753E0969587955A95E1F7F3CFF8015B
:1011C000E559FE4F208386E0582E88248394912C85
:1011D0005A94F801E6A4F7A4FFEF5F1609F43EC0A5
:1011E000652DC5010E94CF0029833A834B835C8320
:1011F0006D837E838F839887C52CD12CC6018F5B2E
:101200009E4F3C01511043C0F701438950E0BE019D
:101210006F5F7F4FC7010A960E947E1581E0F7013C
:10122000818BF3016491F7012389AE014F5F5F4F1A
:10123000C7010E94030662E0C7010E942B06F60167
:10124000E55CFE4FE491A40101C0440FEA95EAF782
:10125000482B62E0C7010E94BA05BACFC7010E94BD
:10126000010828960FB6F894DEBF0FBECDBFDF9100
:10127000CF911F910F91FF90EF90DF90CF90BF9093
:10128000AF909F908F907F906F905F900895F1E066
:101290005F1639F2F301649121E0C7CFCF93DF935A
:1012A000CEEFD2E08E819F810E94040764E279E054
:1012B000888599850E943B0884E299E09983888318
:1012C000DF91CF9108958F929F92AF92BF92CF926C
:1012D000DF92EF92FF920F931F93CF93DF9300D093
:1012E00000D01F92CDB7DEB78C016B01F42ECB017D
:1012F0000E942201E82E882309F49FC0F801858509
:1013000081548D831C821B82DA82C982FB82BE01DA
:101310006F5F7F4FC8010E944203F1E0FF120EC0D1
:1013200089819A818C159D0549F48D818F3730F420
:1013300062E070E080E090E00E94DB0169817A81E8
:101340002C814B81C8010E94300791E0F9126AC0DC
:10135000882309F469C089819A818C159D05F1F46F
:10136000ED81EF37D8F481ECF8018587878190858E
:10137000928781879A838983FB821C82BE016F5F7B
:101380007F4FC8010E94420388E0F80180AB698169
:101390007A812C814B81C8010E94300789819A8112
:1013A0008C159D0509F441C0FF2019F0F3E0FF12F0
:1013B0003CC08D818F37C8F5F80182A582FF11C02E
:1013C000418152816381748186A597A50E94670639
:1013D000F80182A58B7F82A760E086A597A50E9471
:1013E0004206F80186A597A50E9401080E940E02F8
:1013F0004B015C01C8010E94AE0A813CB1F00E9421
:101400000E02AB01BC01481959096A097B09F801B0
:1014100085819681B0E0A0E084179507A607B707FD
:1014200048F702C08111BACFE12CF80182A582FDF4
:1014300004C086A597A50E9401088E2D0F900F90DD
:101440000F900F900F90DF91CF911F910F91FF9010
:10145000EF90DF90CF90BF90AF909F908F900895C6
:10146000EF92FF920F931F93CF93DF93EC017B01D9
:10147000BA018CA59DA5F70191838083DE011796A3
:1014800088E001900D928A95E1F72115310529F048
:10149000A901CE010F960E947E15F701628173812A
:1014A00040E00833110551F043E06034710509F460
:1014B00044E00617170709F442E0B801CE01DF91B6
:1014C000CF911F910F91FF90EF900C9463090F93B0
:1014D0001F93CF93DF93CDB7DEB728970FB6F8945D
:1014E000DEBF0FBECDBF8091FE029091FF0210E0E3
:1014F0008432994039F11C821B82809104019091C1
:1015000005019C012F5F3F4F30930501209304019B
:101510009E838D8385EC8F838091060390910703D2
:1015200028E0FC0120AB08E310E030E020E050E0D0
:1015300040E0BE016F5F7F4F0E94300A182F81117B
:101540000E944E09812F28960FB6F894DEBF0FBE79
:10155000CDBFDF91CF911F910F9108953F924F9290
:101560005F926F927F928F929F92AF92BF92CF9233
:10157000DF92EF92FF920F931F93CF93DF9300D0F0
:1015800000D0CDB7DEB79C838B830E940E024B0147
:101590005C01712CEB80FC8027E0E20EF11C4B819A
:1015A0005C8145595E4F5A834983E4E24E2EE9E05F
:1015B0005E2EEB81FC8106A517A56FEFC8010E9486
:1015C000E005F801808590E09595879587708630D5
:1015D00090F40E940E02681979098A099B09EB812F
:1015E000FC8106A517A5693E734081059105D0F0E1
:1015F00081E0F801858B872D0F900F900F900F9051
:10160000DF91CF911F910F91FF90EF90DF90CF90DE
:10161000BF90AF909F908F907F906F905F904F9012
:101620003F90089560E6C8010E942B06682EF0E204
:10163000F81758F462EEC8010E94E00562E070E01D
:1016400080E090E00E94DB01612CEB81FC8160AACC
:1016500006A517A5F8018489312C811105C03184B4
:10166000361408F4632C3618C8010E94940581E6EC
:101670000E949703F801808767016A94FFEF6F1655
:1016800039F08FEF0E949703F60181936F01F5CF38
:101690003A94FFEF3F1621F08FEF0E949703F8CFA7
:1016A000C8010E94940340E467E0C8010E94BA05A3
:1016B000EB81FC8180A9883008F47BCF01851285FD
:1016C000C8010E942201882309F473CFEB81FC81B9
:1016D000C780D084C6010E942201882309F469CF03
:1016E000EB81FC81758484A595A50817190709F07D
:1016F00042C0F2E87F1609F45CCF20E872120EC0F7
:1017000004321940D9F0EB81FC815286418642E0D7
:1017100064E279E0CF010E9463094BCFF3EC7F12C2
:101720000DC00115110551F0EB81FC811087078375
:101730001286118640E070E060E0ECCFEB81FC8126
:1017400081A5882351F077FE0BC08CE6870D83308E
:1017500038F023E872124FCF03C0F1EC7F16A9F3E3
:10176000B7018B819C810E943F04823009F021CF18
:1017700063E8762E40CF0034110509F06EC032ECDC
:10178000731221C0EB81FC8122A523FD1AC0843293
:10179000F9E09F07B1F0EB81FC81D286C18690878A
:1017A0008783E981FA81608170E090E080E00E94A7
:1017B000DB01EB81FC816185728542E0CF010E94F3
:1017C0006309712CF6CEB7018B819C810E943F0486
:1017D000182FEB81FC8180818823D9F184A595A500
:1017E0009C0153E0369527955A95E1F7232B21F07C
:1017F000EBE7F5E23197F1F7837099279C0148E513
:1018000052E0249FC001259F900D349F900D11241C
:101810000E94AB01EB81FC8183A570E060E088232E
:1018200071F08150990B9C01220F331F820F931F7F
:1018300061E070E002C0660F771F8A95E2F783E0EF
:10184000660F771F8A95E1F744E08B819C810E94A7
:101850006309123009F0ADCE8BCF8432994009F480
:10186000A8CE41E0B8018B819C81A9CFCF92DF92B5
:10187000EF92FF920F931F93CF93DF93CDB7DEB715
:101880002A970FB6F894DEBF0FBECDBF9A8789871F
:10189000AC01809100034F3F540729F190E080E0B4
:1018A0004115510509F18091FE029091FF028432A9
:1018B000E9E09E0709F478C0892B39F5809103038C
:1018C000209101033091020390E0891709F46CC064
:1018D000F9012D5F3F4FD90112976D917C91461709
:1018E000570789F4808190E02A960FB6F894DEBFFE
:1018F0000FBECDBFDF91CF911F910F91FF90EF9061
:10190000DF90CF9008959F5FE0CF1C821B82809173
:101910000401909105019C012F5F3F4F3093050119
:10192000209304019E838D8386EC8F838091060330
:10193000909107032AE0FC0120AB08E310E022E0CD
:1019400030E0AE01475F5F4FBE016F5F7F4F0E9487
:10195000300A811103C08FEF9FEFC6CF0E940E02A5
:101960006B017C0180910603909107030E94AE0AEF
:10197000863C99F0E0910803F0910903309709F053
:1019800009950E940E026C197D098E099F0968381D
:1019900071058105910530F3DECFE0910603F091EA
:1019A000070387859089A0CF8EEF9FEF9DCFCF92C1
:1019B000DF92FF920F931F93CF93DF9300D0CDB7A9
:1019C000DEB780910603909107030E94AE0AF82EBD
:1019D0008091FE029091FF028432994009F44AC03E
:1019E00083ECF81203C081E080930A038091000326
:1019F000811140C08F2D8D7F843C09F061C0E09142
:101A00000603F09107036F01A7E0CA0ED11C87817E
:101A10009085928781871A821982B4ECFB123AC0B2
:101A2000378590E080E03323B1F04091030380914B
:101A300001039091020320E0421749F18C010396C3
:101A4000BC0163507109DB015C9135131EC0D801E4
:101A500011968D919C919A8389838AE080AB08E3EB
:101A600010E022E030E0AE014F5F5F4FB601CF01E2
:101A70000E94300A8F2D0F900F90DF91CF911F9110
:101A80000F91FF90DF90CF9008952F5FD5CF8EEF0D
:101A90009FEFE1CF878590890E94360C9A838983D6
:101AA00080910603909107032AE0FC0120AB08E334
:101AB00010E022E030E0AE014F5F5F4FB601D8CFBB
:101AC000F5ECFF12D7CFA0910603B09107039091D8
:101AD0000303E0910103F091020380E0981751F2B3
:101AE0004181528117962D913C91189742175307C7
:101AF00011F4128211828F5F3396F0CFCF92DF9272
:101B0000EF92FF920F931F93CF93DF93CDB7DEB782
:101B100063970FB6F894DEBF0FBECDBFA4EFB2E05F
:101B2000FE0131967F018D91819322E0AC3FB20797
:101B3000D1F789E689878091FE029091FF02843275
:101B4000994059F10E940E028091FE029091FF028D
:101B50008432994011F11D861C8680910401909178
:101B600005019C012F5F3F4F309305012093040135
:101B70009F878E8783E6888B809106039091070369
:101B800021E1FC0120AB08E310E029E030E0A701EF
:101B9000BE01665F7F4F0E94300A88E291E00E949A
:101BA000EF038091000390E00E940D040E940E025A
:101BB0006B017C010E940E026C197D098E099F0940
:101BC000643F714081059105A0F50E94D70C80917A
:101BD000D8039091D9038E53934061F358F342E0B8
:101BE00050E0BE016E5E7F4FCE010A960E945905FD
:101BF00088E690E00E9407038A899B890E940D0471
:101C00000E94670A61E070E080E090E00E94DB01E2
:101C10008A899B8963960FB6F894DEBF0FBECDBF4D
:101C2000DF91CF911F910F91FF90EF90DF90CF90B8
:101C300008958FE291E00E94EF038FEF90E00E9401
:101C40000D048FEF90E0E6CF2F923F924F925F927C
:101C50006F927F928F929F92AF92BF92CF92DF92BC
:101C6000EF92FF920F931F93CF93DF93CDB7DEB721
:101C700064970FB6F894DEBF0FBECDBF009104038A
:101C8000109105036FEFC8010E94E005F8018085FF
:101C900090E0959587958770863030F480910603A3
:101CA000909107030E94AE0A0E944E090E940E0204
:101CB000698B7A8B8B8B9C8BE12CF12C22242A94C0
:101CC000322C20E430E03C872B87809104019091F6
:101CD00005019C012F5F3F4F3093050120930401C4
:101CE0009E878D8782EC8F878091060390910703F2
:101CF000FC0124A535A53A87298710E000E0FF20E4
:101D000079F02F2D2150330BA901220F331F240FFF
:101D1000351F01E010E002C0000F111F2A95E2F705
:101D200028E0FC0120AB30E020E050E040E0BE01C4
:101D3000675F7F4F0E94300A0E940E022B013C0118
:101D4000912C80910603909107030E94AE0A823C79
:101D5000A1F4E92DF0E0EE0FFF1F21E030E02C0FA1
:101D60003D1FE20FF31FA0910603B09107031796E2
:101D70008D919C919183808393940E940E026419AB
:101D8000750986099709683371058105910558F42D
:101D900033E0391558F0E0910803F09109033097CA
:101DA00081F20995CECF992009F4ABC0D12C812CBA
:101DB00058E0C52E43EC4F8780910003888BE82DB7
:101DC000F0E0EE0FFF1F81E090E08C0F9D1FE80F09
:101DD000F91FA080B180BC86AB86809106039091EC
:101DE0000703FC01C0AA850130E020E050E040E09C
:101DF000BE01675F7F4F0E94300A0E940E022B01D6
:101E00003C010E940E026419750986099709613E1A
:101E1000710581059105D8F580910603909107031E
:101E20000E94AE0A803839F5E0910603F09107036D
:101E300096858091000398131EC047855089C5017F
:101E400020E0009739F033E0969587953A95E1F7D1
:101E50002F5FF7CFF3E02F9F90011124C10102C043
:101E6000880F991F2A95E2F78095909584239523F2
:101E7000A816B90649F0E0910803F09109033097DC
:101E800009F4BFCF0995BDCF892CDD24D394839469
:101E9000891408F48FCFDD20A1F1E0910603F091C1
:101EA0000703878590899093FF028093FE028091BB
:101EB0000403909105030E9404076091FE02709153
:101EC000FF0280910603909107030E943B088091D6
:101ED000FE029091FF020E94360C20910003281709
:101EE000190609F45DC08091FE029091FF020E94E4
:101EF000360C209100032817190609F451C00E94DE
:101F00004E090E940E0229893A894B895C89621B1D
:101F1000730B840B950B6D347D418105910508F0A1
:101F20003FC02E2D30E02F5F3F4F8F2D90E0019668
:101F3000289F4001299F900C389F900C112449E163
:101F4000840E911C880C991C092C000CAA08BB0853
:101F50000E940E022B013C010E940E0264197509B9
:101F600086099709681579058A059B0570F4E09143
:101F70000803F0910903309709F0099561E070E0DA
:101F800080E090E00E94DB01E7CFF3945F2D537077
:101F9000F52E81E08E0D6AE00E941114E92E91CE9B
:101FA0008091FE029091FF0264960FB6F894DEBF16
:101FB0000FBECDBFDF91CF911F910F91FF90EF909A
:101FC000DF90CF90BF90AF909F908F907F906F9059
:101FD0005F904F903F902F9008951F93CF93DF9382
:101FE000EC011FB7F89480914C02811124C0EDE1FF
:101FF000F1E08491E1E3F1E09491E82FF0E0EE0F5D
:10200000FF1FE75FFE4FA591B491EC91E92321F406
:1020100061E08AE00E945F018AE00E9440018CB585
:1020200080618CBD8CB580648CBD8DE00E944001C8
:102030008BE00E94400180914C028F5F80934C02A4
:102040001FBF8A818F3F09F485C09B819F3F09F4A0
:1020500081C0891729F00E9440018B810E944001B4
:1020600060E0CE010E94810361E0CE010E948803FE
:1020700065E070E080E090E00E94DB014FE564E005
:10208000CE010E94BA0570E060E0CE010E94D10648
:102090006DE1CE010E942B06182FCE010E94F205A1
:1020A0006DE1CE010E942B0691E0181390E0988B11
:1020B000882351F0181303C0CE010E94F20540E0BE
:1020C0006DE1CE010E94BA051A8A40E06CE1CE01B2
:1020D0000E94BA051C8A4FE361E0CE010E94BA0556
:1020E00043E062E0CE010E94BA0580E2898711E1F7
:1020F0004985612FCE010E94BA051F5F1731C1F7D4
:1021000043E063E0CE010E94BA0585E08B8B4CE48E
:1021100065E0CE010E94BA0540E767E0CE010E946B
:10212000BA0562EECE010E94E00561EECE010E948A
:10213000E0054CE060E0CE010E94BA0560E0CE010F
:102140000E942B068F87CE010E94D20581E09F85D9
:102150009E3009F080E0DF91CF911F910895EF92BA
:10216000FF920F931F93CF938C018093000385ED13
:1021700090E00E94FF0380910C03882331F080914E
:102180000403909105030E940407C1E0C0930C036F
:1021900080910403909105030E94ED0F8823F9F0CC
:1021A0004DE765E080910403909105030E94BA0514
:1021B00062E070E080910403909105030E94D106D3
:1021C000E0900603F0900703F701C1A78091000398
:1021D0008823D9F00E94240E8432994079F563E077
:1021E0008BE794E00E942B0620918E042250330B43
:1021F0008217130689F581E990E00E94FF030E948F
:10220000240E84329940B9F319C080910B038111D7
:102210000CC0C0930B038EE190E00E945914909380
:10222000020380930103109203031092FF021092A5
:10223000FE0270E060E0C7010E943B080F3F1105FD
:1022400049F08FE491E00E94EF038091000390E059
:102250000E940D0481E005C081E890E00E94FF0328
:1022600080E0CF911F910F91FF90EF9008951F9202
:102270000F920FB60F9211242F933F938F939F933A
:10228000AF93BF9380914F0290915002A091510261
:10229000B091520230914E0223E0230F2D3758F5B2
:1022A0000196A11DB11D20934E0280934F02909381
:1022B0005002A0935102B093520280915302909128
:1022C0005402A0915502B09156020196A11DB11D74
:1022D0008093530290935402A0935502B0935602F8
:1022E000BF91AF919F918F913F912F910F900FBE12
:1022F0000F901F90189526E8230F0296A11DB11D7F
:10230000D2CF1F920F920FB60F9211242F933F93AB
:102310004F935F936F937F938F939F93AF93BF93ED
:10232000EF93FF9387E592E00E949802FF91EF916F
:10233000BF91AF919F918F917F916F915F914F91DD
:102340003F912F910F900FBE0F901F9018951F92E5
:102350000F920FB60F9211242F938F939F93EF93A9
:10236000FF93E0916702F09168028081E0916D0235
:10237000F0916E0282FD1BC09081809170028F5F90
:102380008F7320917102821741F0E0917002F0E0AA
:10239000E95AFD4F958F80937002FF91EF919F91C5
:1023A0008F912F910F900FBE0F901F9018958081E5
:1023B000F4CF10925A021092590288EE93E0A0E0F6
:1023C000B0E080935B0290935C02A0935D02B093B7
:1023D0005E0287E191E0909358028093570285EC6A
:1023E00090E0909364028093630284EC90E0909379
:1023F00066028093650280EC90E09093680280937F
:10240000670281EC90E090936A028093690282EC0B
:1024100090E090936C0280936B0286EC90E0909336
:102420006E0280936D0210927002109271021092EF
:10243000720210927302A4EFB2E090E080E041E2F9
:10244000FC013E9621E030E08630910510F430E04A
:1024500020E0E20FF31F40935700E491ED930196C3
:102460008930910569F78BE794E029E020937D049A
:102470002AE020937E0440E856E968E970E0409342
:102480007F0450938004609381047093820420E25F
:102490002093840410928B0410928C0425E02093E6
:1024A0008E0421E020938F0445E050E060E070E06E
:1024B0004093950450939604609397047093980406
:1024C0002DEF32E030937C0420937B04109285043E
:1024D00090933C0380933B032EE333E03093D90386
:1024E0002093D80326EE33E03093E5032093E403F2
:1024F0002AED33E0309335032093340310923703F1
:102500001092360310920D039093050380930403F9
:102510008DE093E0909307038093060310920903E4
:102520001092080310920C0310920B030895CF939E
:10253000DF93CDB7DEB729970FB6F894DEBF0FBE95
:10254000CDBF789484B5826084BD84B5816084BD3C
:1025500085B5826085BD85B5816085BD80916E0041
:10256000816080936E001092810080918100826072
:1025700080938100809181008160809381008091AF
:1025800080008160809380008091B100846080939E
:10259000B1008091B00081608093B00080917A009A
:1025A000846080937A0080917A00826080937A00C0
:1025B00080917A00816080937A0080917A008068AF
:1025C00080937A001092C100E0916702F091680256
:1025D00082E08083E0916302F09164021082E091D6
:1025E0006502F09166028FEC808310926F02E09199
:1025F0006B02F0916C0286E08083E0916902F091B9
:102600006A02808180618083E0916902F0916A02B0
:10261000808188608083E0916902F0916A02808104
:1026200080688083E0916902F0916A0280818F7DE9
:1026300080838BE791E00E94F10382E00E944001D9
:1026400083E00E9440018BE794E00E94ED0F66E07A
:102650008BE794E00E942B06887F482F416066E05C
:102660008BE794E00E94BA0545E564E08BE794E0CF
:102670000E94BA054DE765E08BE794E00E94BA0539
:102680008FEF90E0909301018093000184EC91E042
:102690000E94EF0380910001909101010E940D04BE
:1026A00085ED91E00E94EF0304EF12E0F8018191C3
:1026B0008F01803120F480EE91E00E94EF03F80159
:1026C0003197608170E090E080E040E10E94AB03D0
:1026D00083ED91E00E94EF03F2E00D3F1F0731F719
:1026E00085E291E00E949E03809102019091030196
:1026F0000E94AF100E94D70C0E947E0D90930301A0
:10270000809302010E94AF10809102019091030119
:102710008F3F910529F482EE91E00E94F103ECCF06
:1027200000E010E0892B69F48FEF90E090930301B3
:10273000809302010E94670A88E092E00E94EF0302
:10274000FFCF8091000390E09093030180930201FA
:102750008F3F910509F449C00E94D70C8091D8039E
:102760009091D9038E539340F9F0F0F041E050E09E
:10277000BE01675F7F4FCE0101960E945905898592
:10278000882391F080914D0291E0892780934D023A
:102790008EE192E00E94EF0380914D028823E1F0E8
:1027A0008AE292E00E94F10380914D028823B9F001
:1027B00061E082E00E945F0161E083E00E945F01CE
:1027C0000115110509F4BDCF0E948402882309F484
:1027D000B8CF0E940000B5CF82E392E0E3CF60E083
:1027E00082E00E945F0160E0E8CF8DE392E00E940A
:1027F000EF038091000390E00E940D0482EE91E0CF
:102800000E94F1030E947E0D9093030180930201C8
:102810000E94AF1061E070E080E090E00E94DB0178
:10282000CFCF991B79E004C0991F961708F0961B2B
:10283000881F7A95C9F780950895AA1BBB1B51E1A3
:1028400007C0AA1FBB1FA617B70710F0A61BB70B20
:10285000881F991F5A95A9F780959095BC01CD01C5
:102860000895A1E21A2EAA1BBB1BFD010DC0AA1FD1
:10287000BB1FEE1FFF1FA217B307E407F50720F0E9
:10288000A21BB30BE40BF50B661F771F881F991F64
:102890001A9469F760957095809590959B01AC01AD
:1028A000BD01CF010895EE0FFF1F0590F491E02DBB
:1028B00009940F931F93CF93DF938230910510F407
:1028C00082E090E0E0919B04F0919C0430E020E0F5
:1028D000B0E0A0E0309799F42115310509F44AC021
:1028E000281B390B24303105D8F58A819B8161156D
:1028F000710589F1FB0193838283FE0111C0408140
:1029000051810281138148175907E0F04817590790
:1029100099F4109761F012960C93129713961C93EA
:102920003296CF01DF91CF911F910F9108950093BF
:102930009B0410939C04F4CF2115310551F04217EC
:10294000530738F0A901DB019A01BD01DF01F8014D
:10295000C1CFEF01F9CF90939C0480939B04CDCF1E
:10296000FE01E20FF31F81939193225031093983C5
:102970002883D7CF2091990430919A04232B41F4D6
:10298000209108013091090130939A042093990411
:1029900020910601309107012115310541F42DB731
:1029A0003EB740910A0150910B01241B350BE09179
:1029B0009904F0919A04E217F307A0F42E1B3F0B41
:1029C0002817390778F0AC014E5F5F4F24173507A1
:1029D00048F04E0F5F1F50939A04409399048193DF
:1029E00091939FCFF0E0E0E09CCFCF93DF930097EF
:1029F000E9F0FC01329713821282A0919B04B091FE
:102A00009C04ED0130E020E01097A1F42081318199
:102A1000820F931F2091990430919A042817390747
:102A200009F061C0F0939A04E0939904DF91CF918B
:102A30000895EA01CE17DF07E8F54A815B819E0120
:102A400041155105B1F7E901FB83EA834991599199
:102A5000C40FD51FEC17FD0761F4808191810296A8
:102A6000840F951FE90199838883828193819B83D9
:102A70008A83F0E0E0E012968D919C911397009785
:102A8000B9F52D913C911197CD010296820F931FBC
:102A90002091990430919A042817390739F6309714
:102AA00051F510929C0410929B04B0939A04A09349
:102AB0009904BCCFD383C28340815181840F951F79
:102AC000C817D90761F44E5F5F4F88819981480F1D
:102AD000591F518340838A819B819383828321156F
:102AE000310509F0B0CFF0939C04E0939B049ECF96
:102AF000FD01DC01C0CF13821282D7CFFB01DC01C4
:102B000002C001900D9241505040D8F708956817C7
:102B1000790768F4FB01DC01E40FF51FA40FB51F72
:102B200002C002900E9241505040D8F708950C9484
:062B30007E15F894FFCFB2
:102B3600FF00FF00010000009D048000C33C33CE6F
:102B46003EE3EC00000000BA021A024702220378B4
:102B56000256026A020D0A006D7949443A2000467F
:102B6600616C68612C207265736574616E646F2098
:102B76004944207061726120626173653A200043A6
:102B86006F6E6578C3A36F204573746162656C656B
:102B96006369646120636F6D207375636573736F1A
:102BA6002C206D65752069643A2000232323232396
:102BB60023232323232323232323232323232323DF
:102BC60023232323232323232323232323232323CF
:102BD60023232323232323232323232323232323BF
:102BE60023232323232323232323232323232323AF
:102BF600232323004D657520C3BA6C74696D6F205D
:102C060049443A2000556E6971756549443A200079
:102C16003000536F6C69636974616E646F206E6F08
:102C2600766F206964207061726120612063656E31
:102C36007472616C2E2E2E00446573636F6E65632D
:102C46007461646F20646120726564652E00497248
:102C560072696761C3A7C3A36F00206C696761646B
:102C66006100206465736C69676164610045727216
:0C2C76006F2C206D65752049443A200049
:00000001FF
